{
  "contractName": "ProxyFactory",
  "abi": [
    {
      "anonymous": false,
      "inputs": [
        {
          "indexed": false,
          "internalType": "address",
          "name": "proxyAddress",
          "type": "address"
        }
      ],
      "name": "ProxyDeployed",
      "type": "event"
    },
    {
      "inputs": [
        {
          "internalType": "address",
          "name": "owner",
          "type": "address"
        }
      ],
      "name": "calculateAddress",
      "outputs": [
        {
          "internalType": "address",
          "name": "",
          "type": "address"
        }
      ],
      "stateMutability": "view",
      "type": "function"
    },
    {
      "inputs": [
        {
          "internalType": "address",
          "name": "owner",
          "type": "address"
        }
      ],
      "name": "deployProxy",
      "outputs": [
        {
          "internalType": "contract ProxyIdentity",
          "name": "",
          "type": "address"
        }
      ],
      "stateMutability": "nonpayable",
      "type": "function"
    }
  ],
  "bytecode": "0x608060405234801561001057600080fd5b50610ff4806100206000396000f3fe608060405234801561001057600080fd5b50600436106100365760003560e01c80639f3fdb8d1461003b578063cbd433f414610064575b600080fd5b61004e61004936600461023e565b610077565b60405161005b91906102d6565b60405180910390f35b61004e61007236600461023e565b610118565b600060ff306000801b6040518060200161009090610231565b601f1982820381018352601f9091011660408190526100b39087906020016102d6565b60408051601f19818403018152908290526100d1929160200161026c565b604051602081830303815290604052805190602001206040516020016100fa949392919061029a565b60408051601f19818403018152919052805160209091012092915050565b60008061012483610077565b9050610138816001600160a01b03166101f5565b6101ef5760008060001b8460405161014f90610231565b61015991906102d6565b8190604051809103906000f5905080158015610179573d6000803e3d6000fd5b509050806001600160a01b0316826001600160a01b0316146101b65760405162461bcd60e51b81526004016101ad906102ea565b60405180910390fd5b7fe542a942474a745be15595bbad9536fc3040d687435b060b2b9f07c1b7449818826040516101e591906102d6565b60405180910390a1505b92915050565b6000813f7fc5d2460186f7233c927e7db2dcc703c0e500b653ca82273b7bfad8045d85a47081811480159061022957508115155b949350505050565b610c5c8061036383390190565b60006020828403121561024f578081fd5b81356001600160a01b0381168114610265578182fd5b9392505050565b6000835161027e818460208801610332565b8351908301610291828260208801610332565b01949350505050565b60f89490941b6001600160f81b031916845260609290921b6bffffffffffffffffffffffff191660018401526015830152603582015260550190565b6001600160a01b0391909116815260200190565b60208082526028908201527f464154414c3a20637265617465322072657475726e65642077726f6e67206164604082015267323932b9b997171760c11b606082015260800190565b60005b8381101561034d578181015183820152602001610335565b8381111561035c576000848401525b5050505056fe60e0604052602c608081815290610c3060a039805161002691603391602090910190610077565b5034801561003357600080fd5b50604051610c5c380380610c5c83398101604081905261005291610112565b603480546001600160a01b0319166001600160a01b0392909216919091179055610140565b828054600181600116156101000203166002900490600052602060002090601f016020900481019282601f106100b857805160ff19168380011785556100e5565b828001600101855582156100e5579182015b828111156100e55782518255916020019190600101906100ca565b506100f19291506100f5565b5090565b61010f91905b808211156100f157600081556001016100fb565b90565b600060208284031215610123578081fd5b81516001600160a01b0381168114610139578182fd5b9392505050565b610ae18061014f6000396000f3fe60806040526004361061007f5760003560e01c80637f23690c1161004e5780637f23690c146101185780638da5cb5b14610138578063946d92041461015a578063a6f9dae11461017a57610086565b806344c028fe1461008b578063486ff0cd146100a057806354f6127f146100cb578063572b6c05146100eb57610086565b3661008657005b600080fd5b61009e61009936600461088f565b610195565b005b3480156100ac57600080fd5b506100b56102d2565b6040516100c29190610977565b60405180910390f35b3480156100d757600080fd5b506100b56100e636600461082d565b610360565b3480156100f757600080fd5b5061010b61010636600461076a565b6103c8565b6040516100c2919061096c565b34801561012457600080fd5b5061009e610133366004610845565b6103dc565b34801561014457600080fd5b5061014d610416565b6040516100c2919061093f565b34801561016657600080fd5b5061009e61017536600461078d565b610425565b34801561018657600080fd5b5061009e61013336600461076a565b6034546001600160a01b03166101a9610592565b6001600160a01b0316146101d85760405162461bcd60e51b81526004016101cf90610a21565b60405180910390fd5b8461022c5761021e848484848080601f01602080910402602001604051908101604052809392919081815260200183838082843760009201919091525061060192505050565b61022757600080fd5b6102cb565b60018514156102b357600061027683838080601f01602080910402602001604051908101604052809392919081815260200183838082843760009201919091525061066992505050565b6040519091506001600160a01b038216907fcf78cf0d6f3d8371e1075c69c492ab4ec5d8cf23a1a239b6a51a1d00be7ca31290600090a2506102cb565b60405162461bcd60e51b81526004016101cf906109ac565b5050505050565b6033805460408051602060026001851615610100026000190190941693909304601f810184900484028201840190925281815292918301828280156103585780601f1061032d57610100808354040283529160200191610358565b820191906000526020600020905b81548152906001019060200180831161033b57829003601f168201915b505050505081565b60356020908152600091825260409182902080548351601f6002600019610100600186161502019093169290920491820184900484028101840190945280845290918301828280156103585780601f1061032d57610100808354040283529160200191610358565b6000546001600160a01b0390811691161490565b6034546001600160a01b03166103f0610592565b6001600160a01b0316146102b35760405162461bcd60e51b81526004016101cf90610a21565b6034546001600160a01b031681565b600054600160a81b900460ff16806104405750610440610683565b806104555750600054600160a01b900460ff16155b6104715760405162461bcd60e51b81526004016101cf906109d3565b600054600160a81b900460ff161580156104a8576000805460ff60a01b1960ff60a81b19909116600160a81b1716600160a01b1790555b600080546001600160a01b0319166001600160a01b0386161781555b82811015610577578383828181106104d857fe5b90506020020160208101906104ed919061076a565b6001600160a01b031663095ea7b3336000196040518363ffffffff1660e01b815260040161051c929190610953565b602060405180830381600087803b15801561053657600080fd5b505af115801561054a573d6000803e3d6000fd5b505050506040513d601f19601f8201168201806040525081019061056e919061080d565b506001016104c4565b50801561058c576000805460ff60a81b191690555b50505050565b6000601836108015906105a957506105a9336103c8565b156105fb576105f46000368080601f01602080910402602001604051908101604052809392919081815260200183838082843760009201919091525050601319360191506106899050565b90506105fe565b50335b90565b6000836001600160a01b0316838360405161061c9190610923565b60006040518083038185875af1925050503d8060008114610659576040519150601f19603f3d011682016040523d82523d6000602084013e61065e565b606091505b509095945050505050565b600060405162461bcd60e51b81526004016101cf906109ac565b303b1590565b600081601401835110156106af576106af6106aa60048551856014016106c1565b61071b565b5001601401516001600160a01b031690565b6060632800659560e01b8484846040516024016106e09392919061098a565b60408051601f198184030181529190526020810180516001600160e01b03166001600160e01b03199093169290921790915290509392505050565b805160208201fd5b60008083601f840112610734578182fd5b50813567ffffffffffffffff81111561074b578182fd5b60208301915083602082850101111561076357600080fd5b9250929050565b60006020828403121561077b578081fd5b813561078681610a93565b9392505050565b6000806000604084860312156107a1578182fd5b83356107ac81610a93565b9250602084013567ffffffffffffffff808211156107c8578384fd5b81860187601f8201126107d9578485fd5b80359250818311156107e9578485fd5b87602080850283010111156107fc578485fd5b949760209095019650909450505050565b60006020828403121561081e578081fd5b81518015158114610786578182fd5b60006020828403121561083e578081fd5b5035919050565b600080600060408486031215610859578283fd5b83359250602084013567ffffffffffffffff811115610876578283fd5b61088286828701610723565b9497909650939450505050565b6000806000806000608086880312156108a6578081fd5b8535945060208601356108b881610a93565b935060408601359250606086013567ffffffffffffffff8111156108da578182fd5b6108e688828901610723565b969995985093965092949392505050565b6000815180845261090f816020860160208601610a67565b601f01601f19169290920160200192915050565b60008251610935818460208701610a67565b9190910192915050565b6001600160a01b0391909116815260200190565b6001600160a01b03929092168252602082015260400190565b901515815260200190565b60006020825261078660208301846108f7565b606081016008851061099857fe5b938152602081019290925260409091015290565b6020808252600d908201526c1b9bdd081cdd5c1c1bdc9d1959609a1b604082015260600190565b6020808252602e908201527f436f6e747261637420696e7374616e63652068617320616c726561647920626560408201526d195b881a5b9a5d1a585b1a5e995960921b606082015260800190565b60208082526026908201527f50726f78794964656e746974793a2063616c6c6572206973206e6f74207468656040820152651037bbb732b960d11b606082015260800190565b60005b83811015610a82578181015183820152602001610a6a565b8381111561058c5750506000910152565b6001600160a01b0381168114610aa857600080fd5b5056fea26469706673582212200fafa319e83f0cbab4f1d82025b3850e66f041d2ecc925a83c433ac4e6308c5564736f6c63430006090033322e302e302d616c7068612e312b6f70656e67736e2e6572633732352e6972656c6179726563697069656e74a26469706673582212201083db5c720fc9c0e9ecbd342c845e7976db719323cd03d0c9f744024269d57a64736f6c63430006090033",
  "immutableReferences": {},
  "source": "//SPDX-License-Identifier: MIT\npragma solidity ^0.6.2;\npragma experimental ABIEncoderV2;\n\nimport \"@openzeppelin/contracts/utils/Address.sol\";\nimport \"./ProxyIdentity.sol\";\n\ncontract  ProxyFactory {\n    using Address for address;\n\n    event ProxyDeployed(address proxyAddress);\n\n    function calculateAddress(address owner) view public returns (address){\n        return address(uint256(keccak256(\n                abi.encodePacked(\n                    uint8(0xff),\n                    address(this),\n                    bytes32(0),\n                    keccak256(abi.encodePacked(type(ProxyIdentity).creationCode, abi.encode(owner)))\n                ))));\n    }\n\n    function deployProxy(address owner) external returns (ProxyIdentity) {\n        address calculatedAddress = calculateAddress(owner);\n        if (!calculatedAddress.isContract()) {\n            ProxyIdentity proxyIdentity = new ProxyIdentity{salt: 0}(owner);\n            require(calculatedAddress == address(proxyIdentity), \"FATAL: create2 returned wrong address...\");\n            emit ProxyDeployed(calculatedAddress);\n        }\n        return ProxyIdentity(payable(calculatedAddress));\n    }\n}\n",
  "sourcePath": "/Users/alexf/gsn-paymasters/contracts/ProxyFactory.sol",
  "compiler": {
    "name": "solc",
    "version": "0.6.9+commit.3e3065ac.Emscripten.clang"
  },
  "schemaVersion": "3.2.0",
  "updatedAt": "2020-06-29T00:22:08.361Z",
  "devdoc": {
    "methods": {}
  },
  "userdoc": {
    "methods": {}
  }
}