{
  "contractName": "ProxyDeployingPaymaster",
  "abi": [
    {
      "inputs": [
        {
          "internalType": "contract IUniswap[]",
          "name": "_uniswaps",
          "type": "address[]"
        },
        {
          "internalType": "contract ProxyFactory",
          "name": "_proxyFactory",
          "type": "address"
        }
      ],
      "stateMutability": "nonpayable",
      "type": "constructor"
    },
    {
      "anonymous": false,
      "inputs": [
        {
          "indexed": true,
          "internalType": "address",
          "name": "previousOwner",
          "type": "address"
        },
        {
          "indexed": true,
          "internalType": "address",
          "name": "newOwner",
          "type": "address"
        }
      ],
      "name": "OwnershipTransferred",
      "type": "event"
    },
    {
      "anonymous": false,
      "inputs": [
        {
          "indexed": false,
          "internalType": "uint256",
          "name": "eth",
          "type": "uint256"
        }
      ],
      "name": "Received",
      "type": "event"
    },
    {
      "anonymous": false,
      "inputs": [
        {
          "indexed": false,
          "internalType": "uint256",
          "name": "gasUseWithoutPost",
          "type": "uint256"
        },
        {
          "indexed": false,
          "internalType": "uint256",
          "name": "gasJustPost",
          "type": "uint256"
        },
        {
          "indexed": false,
          "internalType": "uint256",
          "name": "ethActualCharge",
          "type": "uint256"
        },
        {
          "indexed": false,
          "internalType": "uint256",
          "name": "tokenActualCharge",
          "type": "uint256"
        }
      ],
      "name": "TokensCharged",
      "type": "event"
    },
    {
      "inputs": [
        {
          "components": [
            {
              "components": [
                {
                  "internalType": "address",
                  "name": "to",
                  "type": "address"
                },
                {
                  "internalType": "bytes",
                  "name": "data",
                  "type": "bytes"
                },
                {
                  "internalType": "uint256",
                  "name": "value",
                  "type": "uint256"
                },
                {
                  "internalType": "address",
                  "name": "from",
                  "type": "address"
                },
                {
                  "internalType": "uint256",
                  "name": "nonce",
                  "type": "uint256"
                },
                {
                  "internalType": "uint256",
                  "name": "gas",
                  "type": "uint256"
                }
              ],
              "internalType": "struct IForwarder.ForwardRequest",
              "name": "request",
              "type": "tuple"
            },
            {
              "components": [
                {
                  "internalType": "uint256",
                  "name": "gasPrice",
                  "type": "uint256"
                },
                {
                  "internalType": "uint256",
                  "name": "pctRelayFee",
                  "type": "uint256"
                },
                {
                  "internalType": "uint256",
                  "name": "baseRelayFee",
                  "type": "uint256"
                },
                {
                  "internalType": "address",
                  "name": "relayWorker",
                  "type": "address"
                },
                {
                  "internalType": "address",
                  "name": "paymaster",
                  "type": "address"
                },
                {
                  "internalType": "bytes",
                  "name": "paymasterData",
                  "type": "bytes"
                },
                {
                  "internalType": "uint256",
                  "name": "clientId",
                  "type": "uint256"
                },
                {
                  "internalType": "address",
                  "name": "forwarder",
                  "type": "address"
                }
              ],
              "internalType": "struct GsnTypes.RelayData",
              "name": "relayData",
              "type": "tuple"
            }
          ],
          "internalType": "struct GsnTypes.RelayRequest",
          "name": "relayRequest",
          "type": "tuple"
        },
        {
          "internalType": "bytes",
          "name": "signature",
          "type": "bytes"
        }
      ],
      "name": "_verifySignature",
      "outputs": [],
      "stateMutability": "view",
      "type": "function"
    },
    {
      "inputs": [],
      "name": "domainSeparator",
      "outputs": [
        {
          "internalType": "bytes32",
          "name": "",
          "type": "bytes32"
        }
      ],
      "stateMutability": "view",
      "type": "function"
    },
    {
      "inputs": [],
      "name": "gasUsedByPost",
      "outputs": [
        {
          "internalType": "uint256",
          "name": "",
          "type": "uint256"
        }
      ],
      "stateMutability": "view",
      "type": "function"
    },
    {
      "inputs": [],
      "name": "getHubAddr",
      "outputs": [
        {
          "internalType": "address",
          "name": "",
          "type": "address"
        }
      ],
      "stateMutability": "view",
      "type": "function"
    },
    {
      "inputs": [],
      "name": "getRelayHubDeposit",
      "outputs": [
        {
          "internalType": "uint256",
          "name": "",
          "type": "uint256"
        }
      ],
      "stateMutability": "view",
      "type": "function"
    },
    {
      "inputs": [],
      "name": "owner",
      "outputs": [
        {
          "internalType": "address",
          "name": "",
          "type": "address"
        }
      ],
      "stateMutability": "view",
      "type": "function"
    },
    {
      "inputs": [],
      "name": "proxyFactory",
      "outputs": [
        {
          "internalType": "contract ProxyFactory",
          "name": "",
          "type": "address"
        }
      ],
      "stateMutability": "view",
      "type": "function"
    },
    {
      "inputs": [],
      "name": "renounceOwnership",
      "outputs": [],
      "stateMutability": "nonpayable",
      "type": "function"
    },
    {
      "inputs": [
        {
          "internalType": "uint256",
          "name": "_gasUsedByPost",
          "type": "uint256"
        }
      ],
      "name": "setPostGasUsage",
      "outputs": [],
      "stateMutability": "nonpayable",
      "type": "function"
    },
    {
      "inputs": [
        {
          "internalType": "contract IRelayHub",
          "name": "hub",
          "type": "address"
        }
      ],
      "name": "setRelayHub",
      "outputs": [],
      "stateMutability": "nonpayable",
      "type": "function"
    },
    {
      "inputs": [
        {
          "internalType": "contract IForwarder",
          "name": "forwarder",
          "type": "address"
        }
      ],
      "name": "setTrustedForwarder",
      "outputs": [],
      "stateMutability": "nonpayable",
      "type": "function"
    },
    {
      "inputs": [
        {
          "internalType": "uint256",
          "name": "",
          "type": "uint256"
        }
      ],
      "name": "tokens",
      "outputs": [
        {
          "internalType": "contract IERC20",
          "name": "",
          "type": "address"
        }
      ],
      "stateMutability": "view",
      "type": "function"
    },
    {
      "inputs": [
        {
          "internalType": "address",
          "name": "newOwner",
          "type": "address"
        }
      ],
      "name": "transferOwnership",
      "outputs": [],
      "stateMutability": "nonpayable",
      "type": "function"
    },
    {
      "inputs": [
        {
          "internalType": "uint256",
          "name": "",
          "type": "uint256"
        }
      ],
      "name": "uniswaps",
      "outputs": [
        {
          "internalType": "contract IUniswap",
          "name": "",
          "type": "address"
        }
      ],
      "stateMutability": "view",
      "type": "function"
    },
    {
      "inputs": [],
      "name": "versionPaymaster",
      "outputs": [
        {
          "internalType": "string",
          "name": "",
          "type": "string"
        }
      ],
      "stateMutability": "view",
      "type": "function"
    },
    {
      "inputs": [
        {
          "internalType": "uint256",
          "name": "amount",
          "type": "uint256"
        },
        {
          "internalType": "address payable",
          "name": "target",
          "type": "address"
        }
      ],
      "name": "withdrawRelayHubDepositTo",
      "outputs": [],
      "stateMutability": "nonpayable",
      "type": "function"
    },
    {
      "stateMutability": "payable",
      "type": "receive"
    },
    {
      "inputs": [
        {
          "components": [
            {
              "components": [
                {
                  "internalType": "address",
                  "name": "to",
                  "type": "address"
                },
                {
                  "internalType": "bytes",
                  "name": "data",
                  "type": "bytes"
                },
                {
                  "internalType": "uint256",
                  "name": "value",
                  "type": "uint256"
                },
                {
                  "internalType": "address",
                  "name": "from",
                  "type": "address"
                },
                {
                  "internalType": "uint256",
                  "name": "nonce",
                  "type": "uint256"
                },
                {
                  "internalType": "uint256",
                  "name": "gas",
                  "type": "uint256"
                }
              ],
              "internalType": "struct IForwarder.ForwardRequest",
              "name": "request",
              "type": "tuple"
            },
            {
              "components": [
                {
                  "internalType": "uint256",
                  "name": "gasPrice",
                  "type": "uint256"
                },
                {
                  "internalType": "uint256",
                  "name": "pctRelayFee",
                  "type": "uint256"
                },
                {
                  "internalType": "uint256",
                  "name": "baseRelayFee",
                  "type": "uint256"
                },
                {
                  "internalType": "address",
                  "name": "relayWorker",
                  "type": "address"
                },
                {
                  "internalType": "address",
                  "name": "paymaster",
                  "type": "address"
                },
                {
                  "internalType": "bytes",
                  "name": "paymasterData",
                  "type": "bytes"
                },
                {
                  "internalType": "uint256",
                  "name": "clientId",
                  "type": "uint256"
                },
                {
                  "internalType": "address",
                  "name": "forwarder",
                  "type": "address"
                }
              ],
              "internalType": "struct GsnTypes.RelayData",
              "name": "relayData",
              "type": "tuple"
            }
          ],
          "internalType": "struct GsnTypes.RelayRequest",
          "name": "relayRequest",
          "type": "tuple"
        },
        {
          "internalType": "bytes",
          "name": "signature",
          "type": "bytes"
        },
        {
          "internalType": "bytes",
          "name": "",
          "type": "bytes"
        },
        {
          "internalType": "uint256",
          "name": "maxPossibleGas",
          "type": "uint256"
        }
      ],
      "name": "acceptRelayedCall",
      "outputs": [
        {
          "internalType": "bytes",
          "name": "",
          "type": "bytes"
        }
      ],
      "stateMutability": "view",
      "type": "function"
    },
    {
      "inputs": [
        {
          "components": [
            {
              "components": [
                {
                  "internalType": "address",
                  "name": "to",
                  "type": "address"
                },
                {
                  "internalType": "bytes",
                  "name": "data",
                  "type": "bytes"
                },
                {
                  "internalType": "uint256",
                  "name": "value",
                  "type": "uint256"
                },
                {
                  "internalType": "address",
                  "name": "from",
                  "type": "address"
                },
                {
                  "internalType": "uint256",
                  "name": "nonce",
                  "type": "uint256"
                },
                {
                  "internalType": "uint256",
                  "name": "gas",
                  "type": "uint256"
                }
              ],
              "internalType": "struct IForwarder.ForwardRequest",
              "name": "request",
              "type": "tuple"
            },
            {
              "components": [
                {
                  "internalType": "uint256",
                  "name": "gasPrice",
                  "type": "uint256"
                },
                {
                  "internalType": "uint256",
                  "name": "pctRelayFee",
                  "type": "uint256"
                },
                {
                  "internalType": "uint256",
                  "name": "baseRelayFee",
                  "type": "uint256"
                },
                {
                  "internalType": "address",
                  "name": "relayWorker",
                  "type": "address"
                },
                {
                  "internalType": "address",
                  "name": "paymaster",
                  "type": "address"
                },
                {
                  "internalType": "bytes",
                  "name": "paymasterData",
                  "type": "bytes"
                },
                {
                  "internalType": "uint256",
                  "name": "clientId",
                  "type": "uint256"
                },
                {
                  "internalType": "address",
                  "name": "forwarder",
                  "type": "address"
                }
              ],
              "internalType": "struct GsnTypes.RelayData",
              "name": "relayData",
              "type": "tuple"
            }
          ],
          "internalType": "struct GsnTypes.RelayRequest",
          "name": "relayRequest",
          "type": "tuple"
        }
      ],
      "name": "getPayer",
      "outputs": [
        {
          "internalType": "address",
          "name": "",
          "type": "address"
        }
      ],
      "stateMutability": "view",
      "type": "function"
    },
    {
      "inputs": [
        {
          "internalType": "bytes",
          "name": "context",
          "type": "bytes"
        }
      ],
      "name": "preRelayedCall",
      "outputs": [
        {
          "internalType": "bytes32",
          "name": "",
          "type": "bytes32"
        }
      ],
      "stateMutability": "nonpayable",
      "type": "function"
    },
    {
      "inputs": [
        {
          "internalType": "address",
          "name": "owner",
          "type": "address"
        }
      ],
      "name": "deployProxy",
      "outputs": [
        {
          "internalType": "contract ProxyIdentity",
          "name": "",
          "type": "address"
        }
      ],
      "stateMutability": "nonpayable",
      "type": "function"
    },
    {
      "inputs": [
        {
          "internalType": "bytes",
          "name": "context",
          "type": "bytes"
        },
        {
          "internalType": "bool",
          "name": "",
          "type": "bool"
        },
        {
          "internalType": "bytes32",
          "name": "",
          "type": "bytes32"
        },
        {
          "internalType": "uint256",
          "name": "gasUseWithoutPost",
          "type": "uint256"
        },
        {
          "components": [
            {
              "internalType": "uint256",
              "name": "gasPrice",
              "type": "uint256"
            },
            {
              "internalType": "uint256",
              "name": "pctRelayFee",
              "type": "uint256"
            },
            {
              "internalType": "uint256",
              "name": "baseRelayFee",
              "type": "uint256"
            },
            {
              "internalType": "address",
              "name": "relayWorker",
              "type": "address"
            },
            {
              "internalType": "address",
              "name": "paymaster",
              "type": "address"
            },
            {
              "internalType": "bytes",
              "name": "paymasterData",
              "type": "bytes"
            },
            {
              "internalType": "uint256",
              "name": "clientId",
              "type": "uint256"
            },
            {
              "internalType": "address",
              "name": "forwarder",
              "type": "address"
            }
          ],
          "internalType": "struct GsnTypes.RelayData",
          "name": "relayData",
          "type": "tuple"
        }
      ],
      "name": "postRelayedCall",
      "outputs": [],
      "stateMutability": "nonpayable",
      "type": "function"
    },
    {
      "inputs": [],
      "name": "getGasLimits",
      "outputs": [
        {
          "components": [
            {
              "internalType": "uint256",
              "name": "acceptRelayedCallGasLimit",
              "type": "uint256"
            },
            {
              "internalType": "uint256",
              "name": "preRelayedCallGasLimit",
              "type": "uint256"
            },
            {
              "internalType": "uint256",
              "name": "postRelayedCallGasLimit",
              "type": "uint256"
            }
          ],
          "internalType": "struct IPaymaster.GasLimits",
          "name": "limits",
          "type": "tuple"
        }
      ],
      "stateMutability": "view",
      "type": "function"
    }
  ],
  "bytecode": "0x60e0604052602f60808181529062002f9060a03980516200002991600891602090910190620002e0565b503480156200003757600080fd5b5060405162002fbf38038062002fbf8339810160408190526200005a9162000448565b816000620000706001600160e01b03620002db16565b600080546001600160a01b0319166001600160a01b0383169081178255604051929350917f8be0079c531659141344cd1fd0a4f28419497f9722a3daafe3b4186f6b6457e0908290a3508051620000cf90600490602084019062000365565b5060005b8151811015620002b257600160066000848481518110620000f057fe5b60200260200101516001600160a01b03166001600160a01b0316815260200190815260200160002060006101000a81548160ff02191690831515021790555060058282815181106200013e57fe5b60200260200101516001600160a01b0316639d76ea586040518163ffffffff1660e01b815260040160206040518083038186803b1580156200017f57600080fd5b505afa15801562000194573d6000803e3d6000fd5b505050506040513d601f19601f82011682018060405250810190620001ba919062000422565b81546001810183556000928352602090922090910180546001600160a01b0319166001600160a01b039092169190911790556005805482908110620001fb57fe5b60009182526020909120015482516001600160a01b039091169063095ea7b3908490849081106200022857fe5b60200260200101516000196040518363ffffffff1660e01b8152600401620002529291906200052d565b602060405180830381600087803b1580156200026d57600080fd5b505af115801562000282573d6000803e3d6000fd5b505050506040513d601f19601f82011682018060405250810190620002a891906200050b565b50600101620000d3565b5050600980546001600160a01b0319166001600160a01b039290921691909117905550620005a6565b335b90565b828054600181600116156101000203166002900490600052602060002090601f016020900481019282601f106200032357805160ff191683800117855562000353565b8280016001018555821562000353579182015b828111156200035357825182559160200191906001019062000336565b5062000361929150620003cb565b5090565b828054828255906000526020600020908101928215620003bd579160200282015b82811115620003bd57825182546001600160a01b0319166001600160a01b0390911617825560209092019160019091019062000386565b5062000361929150620003e8565b620002dd91905b80821115620003615760008155600101620003d2565b620002dd91905b80821115620003615780546001600160a01b0319168155600101620003ef565b80516200041c816200058d565b92915050565b60006020828403121562000434578081fd5b815162000441816200058d565b9392505050565b600080604083850312156200045b578081fd5b82516001600160401b0381111562000471578182fd5b80840185601f82011262000483578283fd5b805191506200049c62000496836200056d565b62000546565b808382526020808301925080840189828388028701011115620004bd578687fd5b8694505b85851015620004eb57620004d68a826200040f565b845260019490940193928101928101620004c1565b50819650620004fd89828a016200040f565b955050505050509250929050565b6000602082840312156200051d578081fd5b8151801515811462000441578182fd5b6001600160a01b03929092168252602082015260400190565b6040518181016001600160401b03811182821017156200056557600080fd5b604052919050565b60006001600160401b0382111562000583578081fd5b5060209081020190565b6001600160a01b0381168114620005a357600080fd5b50565b6129da80620005b66000396000f3fe6080604052600436106101395760003560e01c80637bb05264116100ab578063ad12e50e1161006f578063ad12e50e14610379578063c10f1a751461038e578063cbd433f4146103a3578063da742228146103c3578063f2fde38b146103e3578063f698da251461040357610177565b80637bb05264146102ef5780637cc61dbd1461030f57806380274db71461032f5780638da5cb5b1461034f578063921276ea1461036457610177565b80635ea54eee116100fd5780635ea54eee1461024357806361843914146102655780636598a1c2146102855780636d7c3e2b146102a5578063715018a6146102c557806374e861d6146102da57610177565b8063020ee1ba1461017c5780631e1359e3146101b25780632afe31c1146101d45780632d14c4b7146101f65780634f64b2be1461021657610177565b36610177577fa8142743f8f70a4c26f3691cf4ed59718381fb2f18070ec52be1f1022d8555573460405161016d9190612259565b60405180910390a1005b600080fd5b34801561018857600080fd5b5061019c610197366004611e20565b610418565b6040516101a991906122d0565b60405180910390f35b3480156101be57600080fd5b506101d26101cd366004611dba565b6105e0565b005b3480156101e057600080fd5b506101e961063c565b6040516101a99190612259565b34801561020257600080fd5b506101d2610211366004611ee9565b6106c2565b34801561022257600080fd5b50610236610231366004611eb9565b61075d565b6040516101a99190612151565b34801561024f57600080fd5b50610258610784565b6040516101a9919061263e565b34801561027157600080fd5b50610236610280366004611eb9565b6107b5565b34801561029157600080fd5b506102366102a0366004611d87565b6107c2565b3480156102b157600080fd5b506101d26102c0366004611eb9565b610863565b3480156102d157600080fd5b506101d261089d565b3480156102e657600080fd5b5061023661091c565b3480156102fb57600080fd5b506101d261030a366004611bda565b61092b565b34801561031b57600080fd5b506101d261032a366004611cf1565b610982565b34801561033b57600080fd5b506101e961034a366004611cb1565b6109bc565b34801561035b57600080fd5b50610236610b53565b34801561037057600080fd5b5061019c610b62565b34801561038557600080fd5b506101e9610bf0565b34801561039a57600080fd5b50610236610bf6565b3480156103af57600080fd5b506102366103be366004611bda565b610c05565b3480156103cf57600080fd5b506101d26103de366004611bda565b610cfa565b3480156103ef57600080fd5b506101d26103fe366004611bda565b610d59565b34801561040f57600080fd5b506101e9610e0f565b6060610425878787610e15565b60008061048061043860208b018b6127e4565b6104469060a0810190612788565b8080601f016020809104026020016040519081016040528093929190818152602001838380828437600092019190915250610f7892505050565b9150915060008061049384848d896110be565b915091506000846001600160a01b031663dd62ed3e84306040518363ffffffff1660e01b81526004016104c7929190612165565b60206040518083038186803b1580156104df57600080fd5b505afa1580156104f3573d6000803e3d6000fd5b505050506040513d601f19601f820116820180604052508101906105179190611ed1565b8210905080806105365750610534836001600160a01b0316611300565b155b61055b5760405162461bcd60e51b81526004016105529061250d565b60405180910390fd5b826105668d806127cf565b610577906080810190606001611bda565b836105828f806127cf565b604001358f806020019061059691906127e4565b6105a89061010081019060e001611bda565b89896040516020016105c097969594939291906121a3565b604051602081830303815290604052955050505050509695505050505050565b6105ed60208401846127e4565b6105ff9061010081019060e001611bda565b6002546001600160a01b0390811691161461062c5760405162461bcd60e51b8152600401610552906123be565b61063783838361133c565b505050565b6001546040516370a0823160e01b81526000916001600160a01b0316906370a082319061066d903090600401612151565b60206040518083038186803b15801561068557600080fd5b505afa158015610699573d6000803e3d6000fd5b505050506040513d601f19601f820116820180604052508101906106bd9190611ed1565b905090565b6106ca611350565b6000546001600160a01b039081169116146106f75760405162461bcd60e51b8152600401610552906124d8565b600154604051627b8a6760e11b81526001600160a01b039091169062f714ce906107279085908590600401612727565b600060405180830381600087803b15801561074157600080fd5b505af1158015610755573d6000803e3d6000fd5b505050505050565b6005818154811061076a57fe5b6000918252602090912001546001600160a01b0316905081565b61078c611b08565b60405180606001604052806201d4c08152602001621e848081526020016201adb0815250905090565b6004818154811061076a57fe5b6009546000906001600160a01b0316639f3fdb8d6107e084806127cf565b6107f1906080810190606001611bda565b6040518263ffffffff1660e01b815260040161080d9190612151565b60206040518083038186803b15801561082557600080fd5b505afa158015610839573d6000803e3d6000fd5b505050506040513d601f19601f8201168201806040525081019061085d9190611bf6565b92915050565b61086b611350565b6000546001600160a01b039081169116146108985760405162461bcd60e51b8152600401610552906124d8565b600755565b6108a5611350565b6000546001600160a01b039081169116146108d25760405162461bcd60e51b8152600401610552906124d8565b600080546040516001600160a01b03909116907f8be0079c531659141344cd1fd0a4f28419497f9722a3daafe3b4186f6b6457e0908390a3600080546001600160a01b0319169055565b6001546001600160a01b031690565b610933611350565b6000546001600160a01b039081169116146109605760405162461bcd60e51b8152600401610552906124d8565b600180546001600160a01b0319166001600160a01b0392909216919091179055565b6000808080806109948a8c018c611c12565b9650965050955095505094506109af8585858a8a8787611354565b5050505050505050505050565b6000808080808080806109d1898b018b611c12565b96509650965096509650965096506109f1876001600160a01b0316611300565b610a00576109fe86610c05565b505b6040516323b872dd60e01b81526001600160a01b038316906323b872dd90610a30908a9030908a9060040161217f565b602060405180830381600087803b158015610a4a57600080fd5b505af1158015610a5e573d6000803e3d6000fd5b505050506040513d601f19601f82011682018060405250810190610a829190611c95565b5060405163013efd8b60e01b81526001600160a01b0382169063013efd8b90610ab990879060001990610384420190600401612757565b602060405180830381600087803b158015610ad357600080fd5b505af1158015610ae7573d6000803e3d6000fd5b505050506040513d601f19601f82011682018060405250810190610b0b9190611ed1565b506040516001600160a01b0384169085156108fc029086906000818181858888f19350505050158015610b42573d6000803e3d6000fd5b5060009a9950505050505050505050565b6000546001600160a01b031690565b6008805460408051602060026001851615610100026000190190941693909304601f81018490048402820184019092528181529291830182828015610be85780601f10610bbd57610100808354040283529160200191610be8565b820191906000526020600020905b815481529060010190602001808311610bcb57829003601f168201915b505050505081565b60075481565b6009546001600160a01b031681565b6009546040516332f50cfd60e21b815260009182916001600160a01b039091169063cbd433f490610c3a908690600401612151565b602060405180830381600087803b158015610c5457600080fd5b505af1158015610c68573d6000803e3d6000fd5b505050506040513d601f19601f82011682018060405250810190610c8c9190611bf6565b60025460405163251b648160e21b81529192506001600160a01b038084169263946d920492610cc29216906005906004016121e4565b600060405180830381600087803b158015610cdc57600080fd5b505af1158015610cf0573d6000803e3d6000fd5b5050505050919050565b610d02611350565b6000546001600160a01b03908116911614610d2f5760405162461bcd60e51b8152600401610552906124d8565b600280546001600160a01b0319166001600160a01b038316179055610d53816114f1565b60035550565b610d61611350565b6000546001600160a01b03908116911614610d8e5760405162461bcd60e51b8152600401610552906124d8565b6001600160a01b038116610db45760405162461bcd60e51b81526004016105529061231a565b600080546040516001600160a01b03808516939216917f8be0079c531659141344cd1fd0a4f28419497f9722a3daafe3b4186f6b6457e091a3600080546001600160a01b0319166001600160a01b0392909216919091179055565b60035481565b610e1d611b29565b6060610e2885611571565b90925090506000610e56610e3f60208801886127e4565b610e519061010081019060e001611bda565b6114f1565b90506000610e6760208801886127e4565b610e799061010081019060e001611bda565b9050806001600160a01b0316633bd0442285846040518060400160405280600c81526020016b14995b185e54995c5d595cdd60a21b8152506040518060800160405280604a81526020016128cc604a91396040518060c00160405280608f8152602001612916608f9139604051602001610ef391906120ab565b60408051601f1981840301815290829052610f12939291602001612048565b60405160208183030381529060405280519060200120878b8b6040518763ffffffff1660e01b8152600401610f4c9695949392919061259c565b60006040518083038186803b158015610f6457600080fd5b505afa1580156109af573d6000803e3d6000fd5b600080825160001415610fd5576005600081548110610f9357fe5b6000918252602082200154600480546001600160a01b03909216929091610fb657fe5b6000918252602090912001549092506001600160a01b031690506110b9565b8251602014610ff65760405162461bcd60e51b815260040161055290612554565b8280602001905181019061100a9190611bf6565b6001600160a01b03811660009081526006602052604090205490915060ff166110455760405162461bcd60e51b81526004016105529061246a565b806001600160a01b0316639d76ea586040518163ffffffff1660e01b815260040160206040518083038186803b15801561107e57600080fd5b505afa158015611092573d6000803e3d6000fd5b505050506040513d601f19601f820116820180604052508101906110b69190611bf6565b91505b915091565b6040516332cc50e160e11b815260009081903090636598a1c2906110e690879060040161265f565b60206040518083038186803b1580156110fe57600080fd5b505afa158015611112573d6000803e3d6000fd5b505050506040513d601f19601f820116820180604052508101906111369190611bf6565b6001549092506000906001600160a01b03166386a16f8f8561115b60208901896127e4565b6040518363ffffffff1660e01b815260040161117892919061273e565b60206040518083038186803b15801561119057600080fd5b505afa1580156111a4573d6000803e3d6000fd5b505050506040513d601f19601f820116820180604052508101906111c89190611ed1565b90506111d485806127cf565b6040013581019050856001600160a01b0316632640f62c826040518263ffffffff1660e01b81526004016112089190612259565b60206040518083038186803b15801561122057600080fd5b505afa158015611234573d6000803e3d6000fd5b505050506040513d601f19601f820116820180604052508101906112589190611ed1565b6040516370a0823160e01b81529092506001600160a01b038816906370a0823190611287908690600401612151565b60206040518083038186803b15801561129f57600080fd5b505afa1580156112b3573d6000803e3d6000fd5b505050506040513d601f19601f820116820180604052508101906112d79190611ed1565b8211156112f65760405162461bcd60e51b8152600401610552906123f5565b5094509492505050565b6000813f7fc5d2460186f7233c927e7db2dcc703c0e500b653ca82273b7bfad8045d85a47081811480159061133457508115155b949350505050565b6113458361169c565b610637838383610e15565b3390565b6001546007546000916001600160a01b0316906386a16f8f9061137e90889063ffffffff6117e916565b866040518363ffffffff1660e01b815260040161139c92919061273e565b60206040518083038186803b1580156113b457600080fd5b505afa1580156113c8573d6000803e3d6000fd5b505050506040513d601f19601f820116820180604052508101906113ec9190611ed1565b905060006001600160a01b038316632640f62c61140f898563ffffffff6117e916565b6040518263ffffffff1660e01b815260040161142b9190612259565b60206040518083038186803b15801561144357600080fd5b505afa158015611457573d6000803e3d6000fd5b505050506040513d601f19601f8201168201806040525081019061147b9190611ed1565b9050600061148f898363ffffffff61181516565b905061149c8a8683611857565b6114a683856118f3565b7fb3d69ff8981e297b4ab7fb9ba8e8a080ffebbee9f273bfa2d10116a8236830458760075485856040516114dd949392919061276d565b60405180910390a150505050505050505050565b6040805160c0810182526017608082019081527f47534e2052656c61796564205472616e73616374696f6e00000000000000000060a083015281528151808301835260018152601960f91b60208281019190915282015260009161085d9190810161155a6119e4565b8152602001846001600160a01b03168152506119e8565b611579611b29565b6040805160c081019091526060908061159285806127cf565b6115a0906020810190611bda565b6001600160a01b031681526020016115b885806127cf565b6115c6906020810190612788565b8080601f01602080910402602001604051908101604052809392919081815260200183838082843760009201919091525050509082525060200161160a85806127cf565b60400135815260200161161d85806127cf565b61162e906080810190606001611bda565b6001600160a01b0316815260200161164685806127cf565b60800135815260200161165985806127cf565b60a001359052915061167661167160208501856127e4565b611a51565b6040516020016116869190612259565b6040516020818303038152906040529050915091565b600060606116aa83806127cf565b6116b8906020810190611bda565b6001600160a01b031663572b6c0560e01b6116d660208601866127e4565b6116e89061010081019060e001611bda565b6040516024016116f89190612151565b60408051601f198184030181529181526020820180516001600160e01b03166001600160e01b0319909416939093179092529051611736919061202c565b600060405180830381855afa9150503d8060008114611771576040519150601f19603f3d011682016040523d82523d6000602084013e611776565b606091505b5091509150816117985760405162461bcd60e51b8152600401610552906124a1565b80516020146117b95760405162461bcd60e51b81526004016105529061241e565b808060200190518101906117cd9190611c95565b6106375760405162461bcd60e51b8152600401610552906122e3565b60008282018381101561180e5760405162461bcd60e51b815260040161055290612360565b9392505050565b600061180e83836040518060400160405280601e81526020017f536166654d6174683a207375627472616374696f6e206f766572666c6f770000815250611adc565b60405163a9059cbb60e01b81526001600160a01b0383169063a9059cbb906118859086908590600401612240565b602060405180830381600087803b15801561189f57600080fd5b505af11580156118b3573d6000803e3d6000fd5b505050506040513d601f19601f820116820180604052508101906118d79190611c95565b6106375760405162461bcd60e51b815260040161055290612397565b60405163013efd8b60e01b81526001600160a01b0382169063013efd8b9061192990859060001990610384420190600401612757565b602060405180830381600087803b15801561194357600080fd5b505af1158015611957573d6000803e3d6000fd5b505050506040513d601f19601f8201168201806040525081019061197b9190611ed1565b5060015460405163aa67c91960e01b81526001600160a01b039091169063aa67c9199084906119ae903090600401612151565b6000604051808303818588803b1580156119c757600080fd5b505af11580156119db573d6000803e3d6000fd5b50505050505050565b4690565b60006040516119f6906120e7565b604051809103902082600001518051906020012083602001518051906020012084604001518560600151604051602001611a34959493929190612262565b604051602081830303815290604052805190602001209050919050565b60006040518060c00160405280608f8152602001612916608f91398051602091820120908335908401356040850135611a906080870160608801611bda565b611aa060a0880160808901611bda565b611aad60a0890189612788565b604051611abb92919061201c565b604051908190038120611a349796959493929160c08b01359060200161228e565b60008184841115611b005760405162461bcd60e51b815260040161055291906122d0565b505050900390565b60405180606001604052806000815260200160008152602001600081525090565b6040518060c0016040528060006001600160a01b03168152602001606081526020016000815260200160006001600160a01b0316815260200160008152602001600081525090565b803561085d816128a5565b60008083601f840112611b8d578182fd5b50813567ffffffffffffffff811115611ba4578182fd5b602083019150836020828501011115611bbc57600080fd5b9250929050565b600060408284031215611bd4578081fd5b50919050565b600060208284031215611beb578081fd5b813561180e816128a5565b600060208284031215611c07578081fd5b815161180e816128a5565b600080600080600080600060e0888a031215611c2c578283fd5b8735611c37816128a5565b96506020880135611c47816128a5565b955060408801359450606088013593506080880135611c65816128a5565b925060a0880135611c75816128a5565b915060c0880135611c85816128a5565b8091505092959891949750929550565b600060208284031215611ca6578081fd5b815161180e816128bd565b60008060208385031215611cc3578182fd5b823567ffffffffffffffff811115611cd9578283fd5b611ce585828601611b7c565b90969095509350505050565b60008060008060008060a08789031215611d09578182fd5b863567ffffffffffffffff80821115611d20578384fd5b611d2c8a838b01611b7c565b909850965060208901359150611d41826128bd565b909450604088013593506060880135925060808801359080821115611d64578283fd5b50808801610100818b031215611d78578283fd5b80925050509295509295509295565b600060208284031215611d98578081fd5b813567ffffffffffffffff811115611dae578182fd5b61133484828501611bc3565b600080600060408486031215611dce578081fd5b833567ffffffffffffffff80821115611de5578283fd5b611df187838801611bc3565b94506020860135915080821115611e06578283fd5b50611e1386828701611b7c565b9497909650939450505050565b60008060008060008060808789031215611e38578384fd5b863567ffffffffffffffff80821115611e4f578586fd5b611e5b8a838b01611bc3565b97506020890135915080821115611e70578586fd5b611e7c8a838b01611b7c565b90975095506040890135915080821115611e94578384fd5b50611ea189828a01611b7c565b979a9699509497949695606090950135949350505050565b600060208284031215611eca578081fd5b5035919050565b600060208284031215611ee2578081fd5b5051919050565b60008060408385031215611efb578182fd5b823591506020830135611f0d816128a5565b809150509250929050565b6001600160a01b03169052565b60008284528282602086013780602084860101526020601f19601f85011685010190509392505050565b60008151808452611f67816020860160208601612875565b601f01601f19169290920160200192915050565b60006101008235845260208301356020850152604083013560408501526060830135611fa6816128a5565b6001600160a01b039081166060860152608084013590611fc5826128a5565b166080850152611fd860a0840184612806565b8260a0870152611feb8387018284611f25565b60c086013560c088015260e08601359350612005846128a5565b61201260e0880185611f18565b9695505050505050565b6000828483379101908152919050565b6000825161203e818460208701612875565b9190910192915050565b6000845161205a818460208901612875565b808301600560fb1b815285519150612079826001830160208901612875565b818101600b60fa1b60018201528551925061209b836002830160208901612875565b9091016002019695505050505050565b60007352656c6179446174612072656c6179446174612960601b825282516120da816014850160208701612875565b9190910160140192915050565b7f454950373132446f6d61696e28737472696e67206e616d652c737472696e672081527f76657273696f6e2c75696e7432353620636861696e49642c6164647265737320602082015271766572696679696e67436f6e74726163742960701b604082015260520190565b6001600160a01b0391909116815260200190565b6001600160a01b0392831681529116602082015260400190565b6001600160a01b039384168152919092166020820152604081019190915260600190565b6001600160a01b03978816815295871660208701526040860194909452606085019290925284166080840152831660a083015290911660c082015260e00190565b60006040820160018060a01b03808616845260206040818601528286548085526060870191508786528286209450855b81811015612232578554851683526001958601959284019201612214565b509098975050505050505050565b6001600160a01b03929092168252602082015260400190565b90815260200190565b9485526020850193909352604084019190915260608301526001600160a01b0316608082015260a00190565b9788526020880196909652604087019490945260608601929092526001600160a01b0390811660808601521660a084015260c083015260e08201526101000190565b60006020825261180e6020830184611f4f565b6020808252601f908201527f696e76616c696420666f7277617264657220666f7220726563697069656e7400604082015260600190565b60208082526026908201527f4f776e61626c653a206e6577206f776e657220697320746865207a65726f206160408201526564647265737360d01b606082015260800190565b6020808252601b908201527f536166654d6174683a206164646974696f6e206f766572666c6f770000000000604082015260600190565b6020808252600d908201526c19985a5b1959081c99599d5b99609a1b604082015260600190565b60208082526018908201527f466f72776172646572206973206e6f7420747275737465640000000000000000604082015260600190565b6020808252600f908201526e62616c616e636520746f6f206c6f7760881b604082015260600190565b6020808252602c908201527f697354727573746564466f727761726465722072657475726e656420696e766160408201526b6c696420726573706f6e736560a01b606082015260800190565b60208082526019908201527f756e737570706f7274656420746f6b656e20756e697377617000000000000000604082015260600190565b6020808252601b908201527f697354727573746564466f727761726465722072657665727465640000000000604082015260600190565b6020808252818101527f4f776e61626c653a2063616c6c6572206973206e6f7420746865206f776e6572604082015260600190565b60208082526027908201527f6964656e74697479206465706c6f7965642062757420616c6c6f77616e636520604082015266746f6f206c6f7760c81b606082015260800190565b60208082526028908201527f696e76616c696420756e6973776170206164647265737320696e207061796d61604082015267737465724461746160c01b606082015260800190565b600060a082526125ac8851612869565b60a0830152602088015160c0808401526125ca610160840182611f4f565b60408a015160e085015260018060a01b0360608b01511661010085015260808a015161012085015260a08a0151610140850152886020850152876040850152838103606085015261261b8188611f4f565b9150508281036080840152612631818587611f25565b9998505050505050505050565b81518152602080830151908201526040918201519181019190915260600190565b600060208252823560be19843603018112612678578182fd5b8381016040602085015260208101915061269e606085016126998484611b71565b611f18565b6126a88282612806565b60c060808701526126be61012087018284611f25565b93505050604081013560a08501526126d960608201826127f9565b6126e660c0860182611f18565b50608081013560e085015260a00135610100840152612708602085018561284b565b838203601f1901604085015261271e8282611f7b565b95945050505050565b9182526001600160a01b0316602082015260400190565b6000838252604060208301526113346040830184611f7b565b9283526020830191909152604082015260600190565b93845260208401929092526040830152606082015260800190565b6000808335601e1984360301811261279e578283fd5b8084018035925067ffffffffffffffff8311156127b9578384fd5b60200192505036819003821315611bbc57600080fd5b6000823560be1983360301811261203e578182fd5b6000823560fe1983360301811261203e578182fd5b6000823561180e816128a5565b6000808335601e1984360301811261281c578283fd5b830160208101925035905067ffffffffffffffff81111561283c57600080fd5b803603831315611bbc57600080fd5b6000823560fe19833603018112612860578182fd5b90910192915050565b6001600160a01b031690565b60005b83811015612890578181015183820152602001612878565b8381111561289f576000848401525b50505050565b6001600160a01b03811681146128ba57600080fd5b50565b80151581146128ba57600080fdfe6164647265737320746f2c627974657320646174612c75696e743235362076616c75652c616464726573732066726f6d2c75696e74323536206e6f6e63652c75696e743235362067617352656c6179446174612875696e743235362067617350726963652c75696e743235362070637452656c61794665652c75696e74323536206261736552656c61794665652c616464726573732072656c6179576f726b65722c61646472657373207061796d61737465722c6279746573207061796d6173746572446174612c75696e7432353620636c69656e74496429a2646970667358221220b370999cb67b5d5e75841161479f40fbf1aaf81873b45b95e9046e62cdd0a4f764736f6c63430006090033322e302e302d616c7068612e312b6f70656e67736e2e70726f78796465706c6f79696e672e697061796d6173746572",
  "immutableReferences": {},
  "source": "//SPDX-License-Identifier: MIT\npragma solidity ^0.6.2;\npragma experimental ABIEncoderV2;\n\nimport \"@openzeppelin/contracts/utils/Address.sol\";\nimport \"./ProxyFactory.sol\";\nimport \"./TokenPaymaster.sol\";\n\ncontract ProxyDeployingPaymaster is TokenPaymaster {\n    using Address for address;\n\n    string public override versionPaymaster = \"2.0.0-alpha.1+opengsn.proxydeploying.ipaymaster\";\n\n    ProxyFactory public proxyFactory;\n\n    constructor(IUniswap[] memory _uniswaps, ProxyFactory _proxyFactory) public TokenPaymaster(_uniswaps)  {\n        proxyFactory = _proxyFactory;\n    }\n\n    function acceptRelayedCall(\n        GsnTypes.RelayRequest calldata relayRequest,\n        bytes calldata signature,\n        bytes calldata,\n        uint256 maxPossibleGas\n    ) external override virtual view\n    returns (bytes memory) {\n        GsnEip712Library.verifySignature(relayRequest, signature);\n        (IERC20 token, IUniswap uniswap) = _getToken(relayRequest.relayData.paymasterData);\n        (address payer, uint256 tokenPreCharge) = _calculatePreCharge(token, uniswap, relayRequest, maxPossibleGas);\n\n        bool isApproved = tokenPreCharge < token.allowance(payer, address(this));\n        require(isApproved || !payer.isContract(), \"identity deployed but allowance too low\");\n        return abi.encode(payer, relayRequest.request.from, tokenPreCharge, relayRequest.request.value, relayRequest.relayData.forwarder, token, uniswap);\n    }\n\n    function getPayer(GsnTypes.RelayRequest calldata relayRequest) public override virtual view returns (address) {\n        // TODO: if (rr.paymasterData != '') return address(rr.paymasterData)\n        //  this is to support pre-existing proxies/proxies with changed owner\n        return proxyFactory.calculateAddress(relayRequest.request.from);\n    }\n\n    function preRelayedCall(bytes calldata context) external override virtual\n    returns (bytes32) {\n        (\n            address payer, address owner, uint256 tokenPrecharge,\n            uint256 valueRequested, address payable destination,\n            IERC20 token, IUniswap uniswap\n        ) = abi.decode(context, (address, address, uint256, uint256, address, IERC20, IUniswap));\n        if (!payer.isContract()) {\n            deployProxy(owner);\n        }\n        token.transferFrom(payer, address(this), tokenPrecharge);\n        //solhint-disable-next-line\n        uniswap.tokenToEthSwapOutput(valueRequested, uint256(-1), block.timestamp+60*15);\n        destination.transfer(valueRequested);\n        return 0;\n    }\n\n    function deployProxy(address owner) public returns (ProxyIdentity) {\n        ProxyIdentity proxy = proxyFactory.deployProxy(owner);\n        proxy.initialize(address(trustedForwarder), tokens);\n    }\n\n    function postRelayedCall(\n        bytes calldata context,\n        bool,\n        bytes32,\n        uint256 gasUseWithoutPost,\n        GsnTypes.RelayData calldata relayData\n    ) external override virtual {\n        (address payer,, uint256 tokenPrecharge, uint256 valueRequested,,IERC20 token, IUniswap uniswap) = abi.decode(context, (address, address, uint256, uint256, address, IERC20, IUniswap));\n        _postRelayedCallInternal(payer, tokenPrecharge, valueRequested, gasUseWithoutPost, relayData, token, uniswap);\n    }\n\n    // TODO: calculate precise values for these params\n    uint256 constant private ACCEPT_RELAYED_CALL_GAS_LIMIT = 120000;\n    uint256 constant private PRE_RELAYED_CALL_GAS_LIMIT = 2000000;\n    uint256 constant private POST_RELAYED_CALL_GAS_LIMIT = 110000;\n\n    function getGasLimits()\n    external\n    override\n    view\n    returns (\n        IPaymaster.GasLimits memory limits\n    ) {\n        return IPaymaster.GasLimits(\n            ACCEPT_RELAYED_CALL_GAS_LIMIT,\n            PRE_RELAYED_CALL_GAS_LIMIT,\n            POST_RELAYED_CALL_GAS_LIMIT\n        );\n    }\n}\n",
  "sourcePath": "/Users/alexf/gsn-paymasters/contracts/ProxyDeployingPaymaster.sol",
  "compiler": {
    "name": "solc",
    "version": "0.6.9+commit.3e3065ac.Emscripten.clang"
  },
  "schemaVersion": "3.2.0",
  "updatedAt": "2020-06-29T00:22:08.356Z",
  "devdoc": {
    "methods": {
      "owner()": {
        "details": "Returns the address of the current owner."
      },
      "renounceOwnership()": {
        "details": "Leaves the contract without owner. It will not be possible to call `onlyOwner` functions anymore. Can only be called by the current owner. NOTE: Renouncing ownership will leave the contract without an owner, thereby removing any functionality that is only available to the owner."
      },
      "transferOwnership(address)": {
        "details": "Transfers ownership of the contract to a new account (`newOwner`). Can only be called by the current owner."
      }
    }
  },
  "userdoc": {
    "methods": {
      "getRelayHubDeposit()": {
        "notice": "check current deposit on relay hub."
      },
      "setPostGasUsage(uint256)": {
        "notice": "set gas used by postRelayedCall, for proper gas calculation. You can use TokenGasCalculator to calculate these values (they depend on actual code of postRelayedCall, but also the gas usage of the token and of Uniswap)"
      },
      "withdrawRelayHubDepositTo(uint256,address)": {
        "notice": "withdraw deposit from relayHub"
      }
    }
  }
}